{
  "abi": [
    {
      "inputs": [
        {
          "internalType": "address",
          "name": "_governor",
          "type": "address"
        }
      ],
      "stateMutability": "nonpayable",
      "type": "constructor"
    },
    {
      "anonymous": false,
      "inputs": [
        {
          "indexed": true,
          "internalType": "address",
          "name": "owner",
          "type": "address"
        },
        {
          "indexed": true,
          "internalType": "address",
          "name": "spender",
          "type": "address"
        },
        {
          "indexed": false,
          "internalType": "uint256",
          "name": "value",
          "type": "uint256"
        }
      ],
      "name": "Approval",
      "type": "event"
    },
    {
      "anonymous": false,
      "inputs": [
        {
          "indexed": true,
          "internalType": "address",
          "name": "delegator",
          "type": "address"
        },
        {
          "indexed": true,
          "internalType": "address",
          "name": "fromDelegate",
          "type": "address"
        },
        {
          "indexed": true,
          "internalType": "address",
          "name": "toDelegate",
          "type": "address"
        }
      ],
      "name": "DelegateChanged",
      "type": "event"
    },
    {
      "anonymous": false,
      "inputs": [
        {
          "indexed": true,
          "internalType": "address",
          "name": "delegate",
          "type": "address"
        },
        {
          "indexed": false,
          "internalType": "uint256",
          "name": "previousBalance",
          "type": "uint256"
        },
        {
          "indexed": false,
          "internalType": "uint256",
          "name": "newBalance",
          "type": "uint256"
        }
      ],
      "name": "DelegateVotesChanged",
      "type": "event"
    },
    {
      "anonymous": false,
      "inputs": [
        {
          "indexed": true,
          "internalType": "address",
          "name": "from",
          "type": "address"
        },
        {
          "indexed": true,
          "internalType": "address",
          "name": "to",
          "type": "address"
        },
        {
          "indexed": false,
          "internalType": "uint256",
          "name": "value",
          "type": "uint256"
        }
      ],
      "name": "Transfer",
      "type": "event"
    },
    {
      "inputs": [],
      "name": "DOMAIN_SEPARATOR",
      "outputs": [
        {
          "internalType": "bytes32",
          "name": "",
          "type": "bytes32"
        }
      ],
      "stateMutability": "view",
      "type": "function"
    },
    {
      "inputs": [
        {
          "internalType": "address",
          "name": "owner",
          "type": "address"
        },
        {
          "internalType": "address",
          "name": "spender",
          "type": "address"
        }
      ],
      "name": "allowance",
      "outputs": [
        {
          "internalType": "uint256",
          "name": "",
          "type": "uint256"
        }
      ],
      "stateMutability": "view",
      "type": "function"
    },
    {
      "inputs": [
        {
          "internalType": "address",
          "name": "spender",
          "type": "address"
        },
        {
          "internalType": "uint256",
          "name": "amount",
          "type": "uint256"
        }
      ],
      "name": "approve",
      "outputs": [
        {
          "internalType": "bool",
          "name": "",
          "type": "bool"
        }
      ],
      "stateMutability": "nonpayable",
      "type": "function"
    },
    {
      "inputs": [
        {
          "internalType": "address",
          "name": "account",
          "type": "address"
        }
      ],
      "name": "balanceOf",
      "outputs": [
        {
          "internalType": "uint256",
          "name": "",
          "type": "uint256"
        }
      ],
      "stateMutability": "view",
      "type": "function"
    },
    {
      "inputs": [
        {
          "internalType": "address",
          "name": "account",
          "type": "address"
        },
        {
          "internalType": "uint32",
          "name": "pos",
          "type": "uint32"
        }
      ],
      "name": "checkpoints",
      "outputs": [
        {
          "components": [
            {
              "internalType": "uint32",
              "name": "fromBlock",
              "type": "uint32"
            },
            {
              "internalType": "uint224",
              "name": "votes",
              "type": "uint224"
            }
          ],
          "internalType": "struct ERC20Votes.Checkpoint",
          "name": "",
          "type": "tuple"
        }
      ],
      "stateMutability": "view",
      "type": "function"
    },
    {
      "inputs": [],
      "name": "decimals",
      "outputs": [
        {
          "internalType": "uint8",
          "name": "",
          "type": "uint8"
        }
      ],
      "stateMutability": "view",
      "type": "function"
    },
    {
      "inputs": [
        {
          "internalType": "address",
          "name": "spender",
          "type": "address"
        },
        {
          "internalType": "uint256",
          "name": "subtractedValue",
          "type": "uint256"
        }
      ],
      "name": "decreaseAllowance",
      "outputs": [
        {
          "internalType": "bool",
          "name": "",
          "type": "bool"
        }
      ],
      "stateMutability": "nonpayable",
      "type": "function"
    },
    {
      "inputs": [
        {
          "internalType": "address",
          "name": "delegatee",
          "type": "address"
        }
      ],
      "name": "delegate",
      "outputs": [],
      "stateMutability": "nonpayable",
      "type": "function"
    },
    {
      "inputs": [
        {
          "internalType": "address",
          "name": "delegatee",
          "type": "address"
        },
        {
          "internalType": "uint256",
          "name": "nonce",
          "type": "uint256"
        },
        {
          "internalType": "uint256",
          "name": "expiry",
          "type": "uint256"
        },
        {
          "internalType": "uint8",
          "name": "v",
          "type": "uint8"
        },
        {
          "internalType": "bytes32",
          "name": "r",
          "type": "bytes32"
        },
        {
          "internalType": "bytes32",
          "name": "s",
          "type": "bytes32"
        }
      ],
      "name": "delegateBySig",
      "outputs": [],
      "stateMutability": "nonpayable",
      "type": "function"
    },
    {
      "inputs": [
        {
          "internalType": "address",
          "name": "account",
          "type": "address"
        }
      ],
      "name": "delegates",
      "outputs": [
        {
          "internalType": "address",
          "name": "",
          "type": "address"
        }
      ],
      "stateMutability": "view",
      "type": "function"
    },
    {
      "inputs": [
        {
          "internalType": "uint256",
          "name": "blockNumber",
          "type": "uint256"
        }
      ],
      "name": "getPastTotalSupply",
      "outputs": [
        {
          "internalType": "uint256",
          "name": "",
          "type": "uint256"
        }
      ],
      "stateMutability": "view",
      "type": "function"
    },
    {
      "inputs": [
        {
          "internalType": "address",
          "name": "account",
          "type": "address"
        },
        {
          "internalType": "uint256",
          "name": "blockNumber",
          "type": "uint256"
        }
      ],
      "name": "getPastVotes",
      "outputs": [
        {
          "internalType": "uint256",
          "name": "",
          "type": "uint256"
        }
      ],
      "stateMutability": "view",
      "type": "function"
    },
    {
      "inputs": [
        {
          "internalType": "address",
          "name": "account",
          "type": "address"
        }
      ],
      "name": "getVotes",
      "outputs": [
        {
          "internalType": "uint256",
          "name": "",
          "type": "uint256"
        }
      ],
      "stateMutability": "view",
      "type": "function"
    },
    {
      "inputs": [
        {
          "internalType": "address",
          "name": "spender",
          "type": "address"
        },
        {
          "internalType": "uint256",
          "name": "addedValue",
          "type": "uint256"
        }
      ],
      "name": "increaseAllowance",
      "outputs": [
        {
          "internalType": "bool",
          "name": "",
          "type": "bool"
        }
      ],
      "stateMutability": "nonpayable",
      "type": "function"
    },
    {
      "inputs": [
        {
          "internalType": "address",
          "name": "to",
          "type": "address"
        },
        {
          "internalType": "uint256",
          "name": "amount",
          "type": "uint256"
        }
      ],
      "name": "mint",
      "outputs": [],
      "stateMutability": "nonpayable",
      "type": "function"
    },
    {
      "inputs": [],
      "name": "name",
      "outputs": [
        {
          "internalType": "string",
          "name": "",
          "type": "string"
        }
      ],
      "stateMutability": "view",
      "type": "function"
    },
    {
      "inputs": [
        {
          "internalType": "address",
          "name": "owner",
          "type": "address"
        }
      ],
      "name": "nonces",
      "outputs": [
        {
          "internalType": "uint256",
          "name": "",
          "type": "uint256"
        }
      ],
      "stateMutability": "view",
      "type": "function"
    },
    {
      "inputs": [
        {
          "internalType": "address",
          "name": "account",
          "type": "address"
        }
      ],
      "name": "numCheckpoints",
      "outputs": [
        {
          "internalType": "uint32",
          "name": "",
          "type": "uint32"
        }
      ],
      "stateMutability": "view",
      "type": "function"
    },
    {
      "inputs": [
        {
          "internalType": "address",
          "name": "owner",
          "type": "address"
        },
        {
          "internalType": "address",
          "name": "spender",
          "type": "address"
        },
        {
          "internalType": "uint256",
          "name": "value",
          "type": "uint256"
        },
        {
          "internalType": "uint256",
          "name": "deadline",
          "type": "uint256"
        },
        {
          "internalType": "uint8",
          "name": "v",
          "type": "uint8"
        },
        {
          "internalType": "bytes32",
          "name": "r",
          "type": "bytes32"
        },
        {
          "internalType": "bytes32",
          "name": "s",
          "type": "bytes32"
        }
      ],
      "name": "permit",
      "outputs": [],
      "stateMutability": "nonpayable",
      "type": "function"
    },
    {
      "inputs": [],
      "name": "symbol",
      "outputs": [
        {
          "internalType": "string",
          "name": "",
          "type": "string"
        }
      ],
      "stateMutability": "view",
      "type": "function"
    },
    {
      "inputs": [],
      "name": "totalSupply",
      "outputs": [
        {
          "internalType": "uint256",
          "name": "",
          "type": "uint256"
        }
      ],
      "stateMutability": "view",
      "type": "function"
    },
    {
      "inputs": [
        {
          "internalType": "address",
          "name": "to",
          "type": "address"
        },
        {
          "internalType": "uint256",
          "name": "amount",
          "type": "uint256"
        }
      ],
      "name": "transfer",
      "outputs": [
        {
          "internalType": "bool",
          "name": "",
          "type": "bool"
        }
      ],
      "stateMutability": "nonpayable",
      "type": "function"
    },
    {
      "inputs": [
        {
          "internalType": "address",
          "name": "from",
          "type": "address"
        },
        {
          "internalType": "address",
          "name": "to",
          "type": "address"
        },
        {
          "internalType": "uint256",
          "name": "amount",
          "type": "uint256"
        }
      ],
      "name": "transferFrom",
      "outputs": [
        {
          "internalType": "bool",
          "name": "",
          "type": "bool"
        }
      ],
      "stateMutability": "nonpayable",
      "type": "function"
    }
  ],
  "bytecode": {
    "object": "0x6101406040523480156200001257600080fd5b506040516200269238038062002692833981016040819052620000359162000755565b604051806040016040528060058152602001642b37b5b2b760d91b81525080604051806040016040528060018152602001603160f81b815250604051806040016040528060058152602001642b37b5b2b760d91b8152506040518060400160405280600381526020016256544b60e81b8152508160039081620000b991906200082b565b506004620000c882826200082b565b5050825160208085019190912083518483012060e08290526101008190524660a0818152604080517f8b73c3c69bb8fe3d512ecc4cf759cc79239f7b179b0ffacaa9a75d522b39400f81880181905281830187905260608201869052608082019490945230818401528151808203909301835260c0019052805194019390932091935091906080523060c052610120525050600a80546001600160a01b0319166001600160a01b0386161790555062000190915033905069021e19e0c9bab240000062000197565b5062000939565b620001ae8282620001b260201b62000a451760201c565b5050565b620001c982826200026960201b62000ad51760201c565b6001600160e01b03620001dd620003368216565b11156200024a5760405162461bcd60e51b815260206004820152603060248201527f4552433230566f7465733a20746f74616c20737570706c79207269736b73206f60448201526f766572666c6f77696e6720766f74657360801b60648201526084015b60405180910390fd5b62000263600962000b9c6200033c60201b178362000353565b50505050565b6001600160a01b038216620002c15760405162461bcd60e51b815260206004820152601f60248201527f45524332303a206d696e7420746f20746865207a65726f206164647265737300604482015260640162000241565b8060026000828254620002d591906200090d565b90915550506001600160a01b038216600081815260208181526040808320805486019055518481527fddf252ad1be2c89b69c2b068fc378daa952ba7f163c4a11628f55a4df523b3ef910160405180910390a3620001ae60008383620004ea565b60025490565b60006200034a82846200090d565b90505b92915050565b82546000908190818115620003b35762000382876200037460018562000923565b600091825260209091200190565b60408051808201909152905463ffffffff8116825264010000000090046001600160e01b03166020820152620003c8565b60408051808201909152600080825260208201525b905080602001516001600160e01b03169350620003e684868860201c565b9250600082118015620003ff5750805163ffffffff1643145b1562000456576200041b836200050260201b62000ba81760201c565b6200042d886200037460018662000923565b80546001600160e01b03929092166401000000000263ffffffff909216919091179055620004db565b86604051806040016040528062000478436200057160201b62000c151760201c565b63ffffffff16815260200162000499866200050260201b62000ba81760201c565b6001600160e01b0390811690915282546001810184556000938452602093849020835194909301519091166401000000000263ffffffff909316929092179101555b5050935093915050565b505050565b620004e5838383620005d860201b62000c7a1760201c565b60006001600160e01b038211156200056d5760405162461bcd60e51b815260206004820152602760248201527f53616665436173743a2076616c756520646f65736e27742066697420696e20326044820152663234206269747360c81b606482015260840162000241565b5090565b600063ffffffff8211156200056d5760405162461bcd60e51b815260206004820152602660248201527f53616665436173743a2076616c756520646f65736e27742066697420696e203360448201526532206269747360d01b606482015260840162000241565b620005f0838383620004e560201b62000cac1760201c565b6001600160a01b03838116600090815260076020526040808220548584168352912054620004e5929182169116838183148015906200062f5750600081115b15620004e5576001600160a01b03831615620006bc576001600160a01b03831660009081526008602090815260408220829162000679919062000747901b62000cb1178562000353565b91509150846001600160a01b0316600080516020620026728339815191528383604051620006b1929190918252602082015260400190565b60405180910390a250505b6001600160a01b03821615620004e5576001600160a01b0382166000908152600860209081526040822082916200070091906200033c901b62000b9c178562000353565b91509150836001600160a01b031660008051602062002672833981519152838360405162000738929190918252602082015260400190565b60405180910390a25050505050565b60006200034a828462000923565b6000602082840312156200076857600080fd5b81516001600160a01b03811681146200078057600080fd5b9392505050565b634e487b7160e01b600052604160045260246000fd5b600181811c90821680620007b257607f821691505b602082108103620007d357634e487b7160e01b600052602260045260246000fd5b50919050565b601f821115620004e557600081815260208120601f850160051c81016020861015620008025750805b601f850160051c820191505b8181101562000823578281556001016200080e565b505050505050565b81516001600160401b0381111562000847576200084762000787565b6200085f816200085884546200079d565b84620007d9565b602080601f8311600181146200089757600084156200087e5750858301515b600019600386901b1c1916600185901b17855562000823565b600085815260208120601f198616915b82811015620008c857888601518255948401946001909101908401620008a7565b5085821015620008e75787850151600019600388901b60f8161c191681555b5050505050600190811b01905550565b634e487b7160e01b600052601160045260246000fd5b808201808211156200034d576200034d620008f7565b818103818111156200034d576200034d620008f7565b60805160a05160c05160e0516101005161012051611ce9620009896000396000611089015260006110d8015260006110b30152600061100c01526000611036015260006110600152611ce96000f3fe608060405234801561001057600080fd5b506004361061014d5760003560e01c80636fcfff45116100c3578063a457c2d71161007c578063a457c2d7146102f3578063a9059cbb14610306578063c3cda52014610319578063d505accf1461032c578063dd62ed3e1461033f578063f1127ed81461035257600080fd5b80636fcfff451461026157806370a08231146102895780637ecebe00146102b25780638e539e8c146102c557806395d89b41146102d85780639ab24eb0146102e057600080fd5b80633644e515116101155780633644e515146101c757806339509351146101cf5780633a46b1a8146101e257806340c10f19146101f5578063587cde1e1461020a5780635c19a95c1461024e57600080fd5b806306fdde0314610152578063095ea7b31461017057806318160ddd1461019357806323b872dd146101a5578063313ce567146101b8575b600080fd5b61015a61038f565b6040516101679190611995565b60405180910390f35b61018361017e3660046119ff565b610421565b6040519015158152602001610167565b6002545b604051908152602001610167565b6101836101b3366004611a29565b61043b565b60405160128152602001610167565b61019761045f565b6101836101dd3660046119ff565b61046e565b6101976101f03660046119ff565b610490565b6102086102033660046119ff565b61050f565b005b610236610218366004611a65565b6001600160a01b039081166000908152600760205260409020541690565b6040516001600160a01b039091168152602001610167565b61020861025c366004611a65565b610534565b61027461026f366004611a65565b610541565b60405163ffffffff9091168152602001610167565b610197610297366004611a65565b6001600160a01b031660009081526020819052604090205490565b6101976102c0366004611a65565b610563565b6101976102d3366004611a80565b610581565b61015a6105dd565b6101976102ee366004611a65565b6105ec565b6101836103013660046119ff565b610673565b6101836103143660046119ff565b6106ee565b610208610327366004611aaa565b6106fc565b61020861033a366004611b02565b610832565b61019761034d366004611b6c565b610996565b610365610360366004611b9f565b6109c1565b60408051825163ffffffff1681526020928301516001600160e01b03169281019290925201610167565b60606003805461039e90611bdf565b80601f01602080910402602001604051908101604052809291908181526020018280546103ca90611bdf565b80156104175780601f106103ec57610100808354040283529160200191610417565b820191906000526020600020905b8154815290600101906020018083116103fa57829003601f168201915b5050505050905090565b60003361042f818585610cbd565b60019150505b92915050565b600033610449858285610de1565b610454858585610e55565b506001949350505050565b6000610469610fff565b905090565b60003361042f8185856104818383610996565b61048b9190611c29565b610cbd565b60004382106104e65760405162461bcd60e51b815260206004820152601f60248201527f4552433230566f7465733a20626c6f636b206e6f7420796574206d696e65640060448201526064015b60405180910390fd5b6001600160a01b03831660009081526008602052604090206105089083611126565b9392505050565b600a546001600160a01b0316331461052657600080fd5b610530828261121d565b5050565b61053e3382611227565b50565b6001600160a01b03811660009081526008602052604081205461043590610c15565b6001600160a01b038116600090815260056020526040812054610435565b60004382106105d25760405162461bcd60e51b815260206004820152601f60248201527f4552433230566f7465733a20626c6f636b206e6f7420796574206d696e65640060448201526064016104dd565b610435600983611126565b60606004805461039e90611bdf565b6001600160a01b0381166000908152600860205260408120548015610660576001600160a01b038316600090815260086020526040902061062e600183611c3c565b8154811061063e5761063e611c4f565b60009182526020909120015464010000000090046001600160e01b0316610663565b60005b6001600160e01b03169392505050565b600033816106818286610996565b9050838110156106e15760405162461bcd60e51b815260206004820152602560248201527f45524332303a2064656372656173656420616c6c6f77616e63652062656c6f77604482015264207a65726f60d81b60648201526084016104dd565b6104548286868403610cbd565b60003361042f818585610e55565b8342111561074c5760405162461bcd60e51b815260206004820152601d60248201527f4552433230566f7465733a207369676e6174757265206578706972656400000060448201526064016104dd565b604080517fe48329057bfd03d55e49b547132e39cffd9c1820ad7b9d4c5307691425d15adf60208201526001600160a01b0388169181019190915260608101869052608081018590526000906107c6906107be9060a001604051602081830303815290604052805190602001206112a0565b8585856112ee565b90506107d181611316565b861461081f5760405162461bcd60e51b815260206004820152601960248201527f4552433230566f7465733a20696e76616c6964206e6f6e63650000000000000060448201526064016104dd565b6108298188611227565b50505050505050565b834211156108825760405162461bcd60e51b815260206004820152601d60248201527f45524332305065726d69743a206578706972656420646561646c696e6500000060448201526064016104dd565b60007f6e71edae12b1b97f4d1f60370fef10105fa2faae0126114a169c64845d6126c98888886108b18c611316565b6040805160208101969096526001600160a01b0394851690860152929091166060840152608083015260a082015260c0810186905260e001604051602081830303815290604052805190602001209050600061090c826112a0565b9050600061091c828787876112ee565b9050896001600160a01b0316816001600160a01b03161461097f5760405162461bcd60e51b815260206004820152601e60248201527f45524332305065726d69743a20696e76616c6964207369676e6174757265000060448201526064016104dd565b61098a8a8a8a610cbd565b50505050505050505050565b6001600160a01b03918216600090815260016020908152604080832093909416825291909152205490565b60408051808201909152600080825260208201526001600160a01b0383166000908152600860205260409020805463ffffffff8416908110610a0557610a05611c4f565b60009182526020918290206040805180820190915291015463ffffffff8116825264010000000090046001600160e01b0316918101919091529392505050565b610a4f8282610ad5565b6002546001600160e01b031015610ac15760405162461bcd60e51b815260206004820152603060248201527f4552433230566f7465733a20746f74616c20737570706c79207269736b73206f60448201526f766572666c6f77696e6720766f74657360801b60648201526084016104dd565b610acf6009610b9c8361133e565b50505050565b6001600160a01b038216610b2b5760405162461bcd60e51b815260206004820152601f60248201527f45524332303a206d696e7420746f20746865207a65726f20616464726573730060448201526064016104dd565b8060026000828254610b3d9190611c29565b90915550506001600160a01b038216600081815260208181526040808320805486019055518481527fddf252ad1be2c89b69c2b068fc378daa952ba7f163c4a11628f55a4df523b3ef910160405180910390a361053060008383611492565b60006105088284611c29565b60006001600160e01b03821115610c115760405162461bcd60e51b815260206004820152602760248201527f53616665436173743a2076616c756520646f65736e27742066697420696e20326044820152663234206269747360c81b60648201526084016104dd565b5090565b600063ffffffff821115610c115760405162461bcd60e51b815260206004820152602660248201527f53616665436173743a2076616c756520646f65736e27742066697420696e203360448201526532206269747360d01b60648201526084016104dd565b6001600160a01b03838116600090815260076020526040808220548584168352912054610cac9291821691168361149d565b505050565b60006105088284611c3c565b6001600160a01b038316610d1f5760405162461bcd60e51b8152602060048201526024808201527f45524332303a20617070726f76652066726f6d20746865207a65726f206164646044820152637265737360e01b60648201526084016104dd565b6001600160a01b038216610d805760405162461bcd60e51b815260206004820152602260248201527f45524332303a20617070726f766520746f20746865207a65726f206164647265604482015261737360f01b60648201526084016104dd565b6001600160a01b0383811660008181526001602090815260408083209487168084529482529182902085905590518481527f8c5be1e5ebec7d5bd14f71427d1e84f3dd0314c0f7b2291e5b200ac8c7c3b925910160405180910390a3505050565b6000610ded8484610996565b90506000198114610acf5781811015610e485760405162461bcd60e51b815260206004820152601d60248201527f45524332303a20696e73756666696369656e7420616c6c6f77616e636500000060448201526064016104dd565b610acf8484848403610cbd565b6001600160a01b038316610eb95760405162461bcd60e51b815260206004820152602560248201527f45524332303a207472616e736665722066726f6d20746865207a65726f206164604482015264647265737360d81b60648201526084016104dd565b6001600160a01b038216610f1b5760405162461bcd60e51b815260206004820152602360248201527f45524332303a207472616e7366657220746f20746865207a65726f206164647260448201526265737360e81b60648201526084016104dd565b6001600160a01b03831660009081526020819052604090205481811015610f935760405162461bcd60e51b815260206004820152602660248201527f45524332303a207472616e7366657220616d6f756e7420657863656564732062604482015265616c616e636560d01b60648201526084016104dd565b6001600160a01b03848116600081815260208181526040808320878703905593871680835291849020805487019055925185815290927fddf252ad1be2c89b69c2b068fc378daa952ba7f163c4a11628f55a4df523b3ef910160405180910390a3610acf848484611492565b6000306001600160a01b037f00000000000000000000000000000000000000000000000000000000000000001614801561105857507f000000000000000000000000000000000000000000000000000000000000000046145b1561108257507f000000000000000000000000000000000000000000000000000000000000000090565b50604080517f00000000000000000000000000000000000000000000000000000000000000006020808301919091527f0000000000000000000000000000000000000000000000000000000000000000828401527f000000000000000000000000000000000000000000000000000000000000000060608301524660808301523060a0808401919091528351808403909101815260c0909201909252805191012090565b815460009081816005811115611180576000611141846115da565b61114b9085611c3c565b600088815260209020909150869082015463ffffffff1611156111705780915061117e565b61117b816001611c29565b92505b505b808210156111cd57600061119483836116c2565b600088815260209020909150869082015463ffffffff1611156111b9578091506111c7565b6111c4816001611c29565b92505b50611180565b8015611207576111f0866111e2600184611c3c565b600091825260209091200190565b5464010000000090046001600160e01b031661120a565b60005b6001600160e01b03169695505050505050565b6105308282610a45565b6001600160a01b038281166000818152600760208181526040808420805485845282862054949093528787166001600160a01b03198416811790915590519190951694919391928592917f3134e8a2e6d97e929a7e54011ea5485d7d196dd5f0ba4d4ef95803e8e3fc257f9190a4610acf82848361149d565b60006104356112ad610fff565b8360405161190160f01b6020820152602281018390526042810182905260009060620160405160208183030381529060405280519060200120905092915050565b60008060006112ff878787876116dd565b9150915061130c816117a1565b5095945050505050565b6001600160a01b03811660009081526005602052604090208054600181018255905b50919050565b8254600090819081811561138b5761135b876111e2600185611c3c565b60408051808201909152905463ffffffff8116825264010000000090046001600160e01b031660208201526113a0565b60408051808201909152600080825260208201525b905080602001516001600160e01b031693506113c084868863ffffffff16565b92506000821180156113d85750805163ffffffff1643145b1561141d576113e683610ba8565b6113f5886111e2600186611c3c565b80546001600160e01b03929092166401000000000263ffffffff909216919091179055611488565b86604051806040016040528061143243610c15565b63ffffffff16815260200161144686610ba8565b6001600160e01b0390811690915282546001810184556000938452602093849020835194909301519091166401000000000263ffffffff909316929092179101555b5050935093915050565b610cac838383610c7a565b816001600160a01b0316836001600160a01b0316141580156114bf5750600081115b15610cac576001600160a01b0383161561154d576001600160a01b038316600090815260086020526040812081906114fa90610cb18561133e565b91509150846001600160a01b03167fdec2bacdd2f05b59de34da9b523dff8be42e5e38e818c82fdb0bae774387a7248383604051611542929190918252602082015260400190565b60405180910390a250505b6001600160a01b03821615610cac576001600160a01b0382166000908152600860205260408120819061158390610b9c8561133e565b91509150836001600160a01b03167fdec2bacdd2f05b59de34da9b523dff8be42e5e38e818c82fdb0bae774387a72483836040516115cb929190918252602082015260400190565b60405180910390a25050505050565b6000816000036115ec57506000919050565b600060016115f9846118eb565b901c6001901b9050600181848161161257611612611c65565b048201901c9050600181848161162a5761162a611c65565b048201901c9050600181848161164257611642611c65565b048201901c9050600181848161165a5761165a611c65565b048201901c9050600181848161167257611672611c65565b048201901c9050600181848161168a5761168a611c65565b048201901c905060018184816116a2576116a2611c65565b048201901c9050610508818285816116bc576116bc611c65565b0461197f565b60006116d16002848418611c7b565b61050890848416611c29565b6000807f7fffffffffffffffffffffffffffffff5d576e7357a4501ddfe92f46681b20a08311156117145750600090506003611798565b6040805160008082526020820180845289905260ff881692820192909252606081018690526080810185905260019060a0016020604051602081039080840390855afa158015611768573d6000803e3d6000fd5b5050604051601f1901519150506001600160a01b03811661179157600060019250925050611798565b9150600090505b94509492505050565b60008160048111156117b5576117b5611c9d565b036117bd5750565b60018160048111156117d1576117d1611c9d565b0361181e5760405162461bcd60e51b815260206004820152601860248201527f45434453413a20696e76616c6964207369676e6174757265000000000000000060448201526064016104dd565b600281600481111561183257611832611c9d565b0361187f5760405162461bcd60e51b815260206004820152601f60248201527f45434453413a20696e76616c6964207369676e6174757265206c656e6774680060448201526064016104dd565b600381600481111561189357611893611c9d565b0361053e5760405162461bcd60e51b815260206004820152602260248201527f45434453413a20696e76616c6964207369676e6174757265202773272076616c604482015261756560f01b60648201526084016104dd565b600080608083901c1561190057608092831c92015b604083901c1561191257604092831c92015b602083901c1561192457602092831c92015b601083901c1561193657601092831c92015b600883901c1561194857600892831c92015b600483901c1561195a57600492831c92015b600283901c1561196c57600292831c92015b600183901c156104355760010192915050565b600081831061198e5781610508565b5090919050565b600060208083528351808285015260005b818110156119c2578581018301518582016040015282016119a6565b506000604082860101526040601f19601f8301168501019250505092915050565b80356001600160a01b03811681146119fa57600080fd5b919050565b60008060408385031215611a1257600080fd5b611a1b836119e3565b946020939093013593505050565b600080600060608486031215611a3e57600080fd5b611a47846119e3565b9250611a55602085016119e3565b9150604084013590509250925092565b600060208284031215611a7757600080fd5b610508826119e3565b600060208284031215611a9257600080fd5b5035919050565b803560ff811681146119fa57600080fd5b60008060008060008060c08789031215611ac357600080fd5b611acc876119e3565b95506020870135945060408701359350611ae860608801611a99565b92506080870135915060a087013590509295509295509295565b600080600080600080600060e0888a031215611b1d57600080fd5b611b26886119e3565b9650611b34602089016119e3565b95506040880135945060608801359350611b5060808901611a99565b925060a0880135915060c0880135905092959891949750929550565b60008060408385031215611b7f57600080fd5b611b88836119e3565b9150611b96602084016119e3565b90509250929050565b60008060408385031215611bb257600080fd5b611bbb836119e3565b9150602083013563ffffffff81168114611bd457600080fd5b809150509250929050565b600181811c90821680611bf357607f821691505b60208210810361133857634e487b7160e01b600052602260045260246000fd5b634e487b7160e01b600052601160045260246000fd5b8082018082111561043557610435611c13565b8181038181111561043557610435611c13565b634e487b7160e01b600052603260045260246000fd5b634e487b7160e01b600052601260045260246000fd5b600082611c9857634e487b7160e01b600052601260045260246000fd5b500490565b634e487b7160e01b600052602160045260246000fdfea2646970667358221220afe82f1b95639b6f25ee855288c45bf6312d3ff1df95fbe8cfd7b90f95e08bf664736f6c63430008120033dec2bacdd2f05b59de34da9b523dff8be42e5e38e818c82fdb0bae774387a724",
    "linkReferences": {}
  },
  "methodIdentifiers": {
    "DOMAIN_SEPARATOR()": "3644e515",
    "allowance(address,address)": "dd62ed3e",
    "approve(address,uint256)": "095ea7b3",
    "balanceOf(address)": "70a08231",
    "checkpoints(address,uint32)": "f1127ed8",
    "decimals()": "313ce567",
    "decreaseAllowance(address,uint256)": "a457c2d7",
    "delegate(address)": "5c19a95c",
    "delegateBySig(address,uint256,uint256,uint8,bytes32,bytes32)": "c3cda520",
    "delegates(address)": "587cde1e",
    "getPastTotalSupply(uint256)": "8e539e8c",
    "getPastVotes(address,uint256)": "3a46b1a8",
    "getVotes(address)": "9ab24eb0",
    "increaseAllowance(address,uint256)": "39509351",
    "mint(address,uint256)": "40c10f19",
    "name()": "06fdde03",
    "nonces(address)": "7ecebe00",
    "numCheckpoints(address)": "6fcfff45",
    "permit(address,address,uint256,uint256,uint8,bytes32,bytes32)": "d505accf",
    "symbol()": "95d89b41",
    "totalSupply()": "18160ddd",
    "transfer(address,uint256)": "a9059cbb",
    "transferFrom(address,address,uint256)": "23b872dd"
  },
  "id": 0
}